:020000040800F2
:1000000008140020356C0008696C00086D6C00084D
:10001000716C0008756C0008796C00080000000025
:100020000000000000000000000000007D6C0008DF
:10003000816C000800000000856C000891680008D1
:10004000896C00088D6C0008916C0008956C0008A4
:10005000996C00089D6C0008A16C0008A56C000854
:10006000A96C00089D680008A7680008AD6C00082E
:10007000B16C0008B56C0008B96C0008BD6C0008D4
:10008000C16C0008C56C0008C96C0008CD6C000884
:10009000D16C0008D56C0008D96C0008B168000864
:1000A000DD6C0008E16C0008E56C0008E96C0008F4
:1000B000ED6C0008F16C0008F56C0008F96C0008A4
:1000C000FD6C0008016D0008056D0008096D000851
:1000D0000D6D0008116D0008156D0008196D000800
:1000E0001D6D0008216D0008256D0008296D0008B0
:1000F0002D6D0008316D0008356D0008396D000860
:100100003D6D0008416D0008456D0008496D00080F
:10011000C76800084D6D0008D1680008516D0008DF
:10012000556D0008596D00085D6D0008616D00088F
:10013000656D00080000000000000000696D000807
:100140006D6D0008716D0008756D0008796D00080F
:100150007D6D0008816D0008856D0008896D0008BF
:100160008D6D0008916D0008956D0008996D00086F
:100170009D6D0008A16D0008000000000000000057
:10018000A56D0008A96D00082DE9F04F80460FF21B
:100190001C60A5B017461D46D0E90023CDE9122307
:1001A000002004910D900DF1500A6FF0004900E01D
:1001B000E7190020ADF8020012AB4FF0FF323946CC
:1001C0000DF1020001F08BF80446012C04DA3878B6
:1001D000441EA441E443E40FBDF8020025280CBFEF
:1001E000A4F1010BA346BBF1010F0EDB3E4616F84E
:1001F000011B0498C0470028049000F0D2820D989B
:10020000401CBBF1010B0D90F1D1BDF80200252877
:1002100007D100200790089009900A900B900C904D
:1002200005E00028C4D10D98BDE240F0010017F8A8
:10023000011F2029F9D023290DD02B2904D02D29E5
:1002400006D030290AD00CE040F0020080B2EEE780
:1002500040F00400FAE740F00800F7E740F0100033
:10026000F4E72A290ED12968296051F8042B296066
:10027000002A0F9204D5514240F004000F9180B241
:100280007F1C11E000210F9109E00F99494505D02D
:1002900001EB810302EB430130390F917F1C3A7867
:1002A000A2F130010A29F0D339782E2903D04FF07A
:1002B000FF310E911DE017F8011F2A2907D1296887
:1002C00029607F1C51F8042B29600E9211E0002157
:1002D0000E9109E00E99494505D001EB810302EB2F
:1002E000430130390E917F1C3A78A2F130010A297E
:1002F000F0D3ADF840000FF2BC40397801F010F8AF
:1003000008B117F8010B8DF842009DF842006828EB
:1003100002BF39786829622005D06C2804BF38787C
:100320006C2803D171208DF842007F1C14A8069020
:1003300017F8014BB4F125002AD01C3800F0CB800F
:10034000001F022840F2C780133800F0EC80093803
:1003500000F0C180801E00F05381401E00F02C810F
:10036000401E022840F2B780001F00F02581401F88
:1003700000F08280401E00F0D680401E2CD0C01EAF
:100380000BD0801E00F0CF80C01E00F0CC805AE160
:1003900025208DF8500001205EE19DF842006C2878
:1003A0002868286014D050F8046B286005960E9CCD
:1003B000002C04D5304600F0C3FF044606E0224678
:1003C0000021304600F0D8FF00B1841B089444E1BE
:1003D00050F8042B28602FE1296829603C2451F84B
:1003E000040B29600021CDE9020114A80590DDE984
:1003F0000201069E11B908B90E9AB2B10206120F97
:10040000A0EB02123032D2B2631E3A2AA8BF2732C2
:10041000000940EA017009099A5508BF00281C46E6
:1004200003D0059AA3199A42E8D3A0190590C4F104
:100430003C010E980891814209DA401A0A904FF661
:10044000EF71BDF840000840ADF8400005E100281C
:1004500040F103819DF8400000F01400102840F0A6
:10046000FC800F98079A801A0A9A801A441A012C65
:10047000C0F2F3800A94F0E09DF8420062281AD09E
:10048000682806D06A280CD06C281CD0712808D0A7
:1004900019E02868286050F8041B28600D9808802F
:1004A000DBE02868286050F8042B28600D98C117FD
:1004B000C2E90001D1E02868286050F8041B2860D8
:1004C0000D980870C9E02868286050F8041B28605F
:1004D0000D980860C1E02868C01D20F007022A605E
:1004E000D2E9000108322A60CDE90201002902D5D3
:1004F00007982D210AE0BDF84000810702D5079832
:100500002B2103E0C00705D50798202100F80A1029
:10051000401C079014A8079908180590214602A8C6
:1005200000F090FB99E09DF842006C280DD07128F6
:1005300018BF6A2809D12868C01D20F007022A6068
:10054000D2E9000108322A6005E02968296051F8E3
:10055000040B29600021CDE902019DF842006828C2
:1005600003D1DDE9020180B20BE0622803D1DDE9AD
:100570000201C0B205E0742818BF7A2804D1DDE971
:1005800002010021CDE902019DF8400000072ED5AF
:10059000DDE90201002908BF002828D044F020002E
:1005A000782824D10798302100F80A10401C411CFB
:1005B000079100F80A401AE09DF84200294600F031
:1005C000FDF8CDE90201002902DA07982D210AE0A1
:1005D000BDF84000810702D507982B2103E0C00732
:1005E00005D50798202100F80A10401C079014A890
:1005F000079908180590214602A800F09FFA2CE000
:100600009DF842006C2809D00120079028682860D6
:1006100050F8041B28608DF850101EE028682860F0
:1006200001AA50F8041B2860ADF804100020ADF8B2
:1006300006004FF0FF300E9002A9404600F0F5F89A
:1006400000280AD5ADE025208DF850000120079044
:100650001CB18AF80140022007900F980799401AB0
:100660000A99401A0899401A0B99401A0999401A98
:100670000C99441A9DF84000400710D420208DF8B2
:100680000000002609E0012300AA02A9404600F06C
:1006900001FE002840F08580761CA642F3DB079E11
:1006A0000DF1500B0AE01BF8011B0498C04700280D
:1006B000049076D00D98401C0D90761E002EF2D13D
:1006C00030208DF800004FF0000B0A9E09E0012356
:1006D00000AA02A9404600F0DDFD002861D10BF11F
:1006E000010BB345F3DB089EDDF814B00AE01BF8FC
:1006F000011B0498C0470028049052D00D98401C5C
:100700000D90761E002EF2D130208DF800004FF0B3
:10071000000B0B9E09E0012300AA02A9404600F04D
:10072000B9FD00283DD10BF1010BB345F3DB059872
:100730000899099E01EB000B09E01BF8011B0498C6
:10074000C047049068B30D98401C0D90761E002E93
:10075000F3D130208DF800004FF0000B0C9E08E024
:10076000012300AA02A9404600F094FDC8B90BF18C
:10077000010BB345F4DB9DF8400040077FF519AD50
:1007800020208DF80000002600E0761CA642BFF66F
:1007900010AD012300AA02A9404600F07BFD00280D
:1007A000F3D04FF0FF3025B0BDE8F08F000000001F
:1007B00000000000686A6C747A4C0000622826D041
:1007C00068281DD06A2808D06C2827D0712804D04A
:1007D000742823D07A280CD020E00868C01D20F0AF
:1007E00007000860D0E90023083008601946104669
:1007F00070470A680A6052F8040B0A6000217047CB
:100800000A680A6052F8040B0A6000B20BE00A683A
:100810000A6052F8040B0A6040B204E00A680A60F9
:1008200052F8040B0A60C11770472DE9F44F0D46CA
:1008300094B0D5F830B0BBF1000F804648BF6FF0E0
:10084000004B00F0C5FD696B401801900FF6742055
:10085000D0E90023CDE9022395F83800400702D4FF
:100860000198412806D240200DF1100A01904FF066
:10087000000909E000F0B2FD5FEA000AF7D14FF08D
:10088000FF3058E1ABEB040BBBF1010FC0F2CD80A0
:100890001498018802AA0DF1010000F0F7FD00286C
:1008A000044600F1D5801498008810B9641E00F148
:1008B000CF80A345C0F2B98068690199221891429E
:1008C00080F0A180296AC5F834904042401AA96995
:1008D000401A696A401AE969401AA96AA0EB01093D
:1008E00095F83800400710D420208DF8000000262D
:1008F00009E0012300AA2946404600F0CBFC00286D
:1009000040F0A680761C4E45F3DB6E6957460BE03F
:1009100017F8011BA868C0470028A86000F098805D
:10092000E86A401CE862761E002EF1D130208DF876
:10093000000000272E6A09E0012300AA294640464C
:1009400000F0A8FC002840F083807F1CB742F3DB56
:10095000AE69EF680AE017F8011BA868C0470028D5
:10096000A86075D0E86A401CE862761E002EF2D1BD
:1009700030208DF8000000276E6A08E0012300AAED
:100980002946404600F086FC002861D17F1CB74212
:10099000F4DBE868A969EE690F180AE017F8011B93
:1009A000A868C0470028A86052D0E86A401CE862E6
:1009B000761E002EF2D130208DF800000027AE6A9E
:1009C00008E0012300AA2946404600F063FC002805
:1009D0003ED17F1CB742F4DB95F8380040070ED5B6
:1009E00020208DF80000002607E0012300AA2946F8
:1009F000404600F04FFC58BB761C4E45F5DB4FF0EF
:100A00000009C5F81490224668690DF101015044AF
:100A100000F04AFD6869201868611498801C1490E1
:100A2000801E008800287FF42DAF686B6969401A2A
:100A3000296A401AA969401A696A401AE969401A84
:100A4000A96A471A95F83800400710D400240CE032
:100A50004FF0FF3968E0A8682021C0470028A8604F
:100A6000F6D0E86A401CE862641CBC42F3DB6B69A8
:100A700052462946404600F00DFC0028E8D12C6A79
:100A8000002609E0A8683021C0470028A860DFD010
:100A9000E86A401CE862761CA642F3DBAB69EA68B0
:100AA0002946404600F0F6FB0028D1D16C6A0026AA
:100AB00009E0A8683021C0470028A860C8D0E86ACB
:100AC000401CE862761CA642F3DBE868A969EB6982
:100AD0000A182946404600F0DDFB0028B8D1AC6A70
:100AE000002609E0A8683021C0470028A860AFD0E0
:100AF000E86A401CE862761CA642F3DB95F83800F1
:100B000040070DD5002409E0A8682021C04700282F
:100B1000A8609DD0E86A401CE862641CBC42F3DB1C
:100B2000C5F81490C5F8349004A882451CBF5046FF
:100B300000F0F6FC484615B0BDE8F08F2DE9FA4EFE
:100B400005460A462F696F2A08BF082405D041F0E0
:100B50002000782814BF0A2410243C26D5E900017F
:100B6000642A18BF692A81468A4605D1002903DA1A
:100B7000D9F100096AEB4A0ABAF1000F08BFB9F1CE
:100B8000000F0CD1286B50B9082C36D195F83800DD
:100B9000000732D530203B2687F83B002DE0E317D5
:100BA00048465146224600F0FBFCA4FB0023A9EB7B
:100BB00002023032D2B2A6F1010B3A2A5E4603DBC2
:100BC0009DF80030513B9A1881465FEA010A0BF804
:100BD000072008BFB9F1000F03D0E868F119884277
:100BE000DDD3082C09D195F83800000705D5F05D54
:100BF000302802D0761E3020F055C6F13C00A861A6
:100C0000F119E960296B884208DA081A28624FF660
:100C1000EF71288F08402887BDE8F38E00290ED594
:100C200095F8381001F01401102908D1696B6A6930
:100C3000891A2A6A891A0E1A012EA8BF2E62BDE8E7
:100C4000F38E00002DE9F24F04468EB0D4E9000186
:100C5000CDE9020104AF9DF8380040F0200BBBF154
:100C6000610F0AD0206B002848BF062004D408BFBB
:100C7000BBF1670F01D1012020636168C1F30A5005
:100C800040F2FF7290421CD1080304BF2068002884
:100C900009D10320A0619DF8380061381A2836D3A5
:100CA0000FF2346108E00320A0619DF8380061383C
:100CB0001A2829D30FF21861E068032200F0F4FB30
:100CC000BEE1012816DA204600F0E1FC012811DB24
:100CD00000250020BBF1610F20D1E168302201F82E
:100CE000012B4A1CE2609DF83820612A0CBF782253
:100CF00058220FE0626840F2FE3161F31E52451A3D
:100D000062604FF0FF30E5E70FF2C051D4E70FF219
:100D1000C451D1E70A706169891C616110B900266C
:100D2000002584E1BBF1610F40F09780206BD4E98E
:100D300000AB00284CBF2126461CDDE90201002241
:100D4000002300F0C5FC36B23ABF8BF00040CDE97D
:100D500002A0CDE902AB06F101082D1F8DF810208D
:100D60000DF1110700E0C71DB8F1010F33DBDDE91C
:100D700002010022002300F0C3FC2CD21C2102A897
:100D800000F0D6FCDDE9020100F05EFDA8F10708E5
:100D9000B8F1010F814609DB00F082FD02460B46E7
:100DA000DDE9020100F094FDCDE90201F81D072103
:100DB00005E009F00F0200F8012D4FEA2919B9F1F9
:100DC000010F01DB491EF4D5491E5CBF002200F86B
:100DD000012DF9D5C7E70DF11100391AB142B8BF9D
:100DE0000E4636B230000DF111072FD4884206DAD4
:100DF00004A9411849780829A8BF0F2100DA002169
:100E000004AA821800E0761E12F80139401E8B42B7
:100E1000F9D00F2904D104A941184A78521C4A700C
:100E2000002802D504AF761C2D1D36B2701E0DD4DD
:100E3000C1190A783032D2B23A2A03DB9DF8383031
:100E40003A3B9A18401E01F80129F2D5206B002880
:100E500040F1ED80701E2063E9E0DDE9020100222F
:100E6000002300F035FC3CBF81F00041CDE90201D8
:100E70002DB247F2975068434B49DFF8309190FB11
:100E8000F1F52DB2C5F1070ABAF1010F90461CDB4E
:100E9000DDE902675FEACA7007D542464B46304635
:100EA000394600F0D5FD06460F46404649464246C3
:100EB0004B464FEA6A0A00F0CBFDBAF1000F8046BC
:100EC0008946E7D1CDE9026724E0CAF1000A00268D
:100ED000374F14E05FEACA7007D542464B463046AA
:100EE000394600F0B5FD06460F46404649464246A3
:100EF0004B4600F0ADFD4FEA6A0A80468946BAF1DA
:100F0000000FE7D1DDE9020132463B4600F072FEF8
:100F1000CDE90201BBF1660F216BDFF898900CBFA1
:100F200005F10A0006204618142EA8BF132630200B
:100F30008DF810000DF11107012E3DDBDDE90201F6
:100F400000F098FC07F1080104220A23B0FBF3F338
:100F500003EB8307A0EB4700303001F8010C0A20B7
:100F6000B3FBF0F000EB8007A3EB47033033521ED6
:100F700001F8023DE9D1083E012E01F10807DBDB53
:100F8000DDE9020100F076FC00F094FC02460B461D
:100F9000DDE9020100F09CFC00224B4600F058FD08
:100FA000CDE90201CAE700BFA0860100000024408D
:100FB0000000F03F84D797410DF11100381A0DF170
:100FC000110702E0401E6D1E7F1C39783029F9D0D0
:100FD000BBF1660F02D12DB2691C04E0BBF1650FB5
:100FE0000CBF01210021226B8E1836B2B042B8BF6F
:100FF000064636B231001AD4814204DAC85D35287B
:10100000A8BF392000DA3020CA19521E00E0761E2F
:1010100012F80139491E8342F9D0392802D1C85D3E
:10102000401CC855002902D57F1E761C6D1C2DB2B0
:101030009DF83810009533B23A46204600F003F888
:101040000FB0BDE8F08F2DE9F04786B006468A461E
:1010500090461D4600F017FF012D406A376B90F84F
:10106000009002DA01250FF274284AF02000BDF941
:101070003840662808BF641C12D0672876D114F166
:10108000040F79DBBC4277DA96F83800641C00075D
:1010900002D4BD42B8BF2F4624B23F1B48BF002731
:1010A00024B2F068B169012C21DA4A1C30230B54B8
:1010B000012F03DA96F83810090702D502F80090DC
:1010C000521CE742B8BF7C4224B2E7196142AF42EA
:1010D000B2617162B8BF3D46B3692DB2F5612A466F
:1010E0004146181800F0E0F9781BB062BBE0081820
:1010F000A54216DA2A46414600F0D6F9B1696918C8
:10110000601B012FB161706203DA96F838000007A6
:1011100005D5F06801F80090F069401CF061B762F5
:10112000A1E02246414600F0BFF9B06920182D1B0E
:10113000012F03DA96F83810090703D5F16800F893
:101140000190401CB0612DB2AF42B8BF3D46F0687F
:10115000B3692DB22A4604EB0801181800F0A4F96F
:10116000B0692818B061781B70627CE0BAF1610F39
:1011700014D14FF0700A16E0BD4204DA96F8381028
:10118000090758BF2F467F1E48BF0027BAF1670FD7
:1011900014BF4FF0450A4FF0650A04E0BAF1410F61
:1011A00008BF4FF0500AB169F06818F8013B0B54C2
:1011B0004A1C012F05DA96F83810090758BFB261AA
:1011C00015D502F80090531C012FB3610FDB6D1E83
:1011D0002DB2AF42B8BF3D462DB22A46414618183F
:1011E00000F062F9B0692818B061781B7062F0688D
:1011F000B1690918200081F800A004D42B204870A0
:1012000001F1020804E02D224A7001F10208644253
:10121000002502AF08E00A2200A800F04DFE019868
:1012200007F8010B6D1C009C21B20129F3DA022D95
:1012300006DA4AF02000652804BF302008F8010BC8
:101240004DB9302008F8010B07E06D1E02A8285C9C
:10125000303008F8010B012DF7DAF068B169081891
:10126000A8EB0000F06196F8380000F01400102898
:101270000DD17069B1690818716A0818F169081808
:10128000B16A0818716B8842BCBF081A306206B098
:10129000BDE8F087F8B504460D4616461F46002007
:1012A00004E0E86A401CE8627F1E002047B116F89F
:1012B000011BA868A0470028A860F2D14FF0FF30BA
:1012C000F2BD000000000000000000006E616E0032
:1012D0004E414E00696E6600494E46003000F8B53A
:1012E00004460D4616461F4600F0EEFD3B463246CC
:1012F0002946204601B0BDE8F04000F0FCBD50F8A2
:10130000041B61B150F8042BD30744BFA9F10103BA
:101310009A180023091F42F8043BFAD1EFE77047FF
:101320000278C9B28A421AB11CBF10F8012FF9E73E
:1013300018BF002070470268531C0360117070478B
:1013400000F10103810704D010F8011B89B1810766
:10135000FAD10268B2F10131914311F0803F04BF2C
:1013600050F8042FF6E710F8011B11B110F8011B1B
:10137000FBE7C01A70470000C9B2830706D0521EAF
:1013800022D310F8013B9942F7D11FE0083A13D35A
:1013900002F1040241EA012141EA014150F8043B13
:1013A000121F21BF4B40A3F1013C2CEA030C1CF09F
:1013B000803FF3D0C9B2001F083210F8013B521E23
:1013C00028BF91EA030FF8D818BF0120401E7047CC
:1013D00080B500F079FD012002BD000070B5054622
:1013E00005F10F00C408C046C046E400A54232D251
:1013F000082C04D2082402E0083000F091F82248BA
:10140000026811000CD1011D0A6802B31368A342DF
:1014100038BF111DF8D310E01D68A5420DD2191D6B
:101420000B68002BF8D11268011D00E0191D0B6834
:1014300093420CD01D68A542F8D361B10D682A68AB
:10144000A2F10803A3420AD26A680A600FE000F022
:1014500075FD0028D0D1C046C046002070BD63197C
:101460000B60121B6E685E600B681A602C60096866
:1014700000291DBF4A68002A091D00210160C046DD
:10148000C04605F1080070BD7403002070B5044625
:101490000D46164600F018FD324629462046BDE8A6
:1014A000704000F01BBD000062B38B0708D0521ED5
:1014B00011F8013B00F8013B00F024808B07F6D1C6
:1014C000830740F0208000BF103A07D330B4B1E862
:1014D0003810103AA0E83810F9D230BC530724BFB6
:1014E000B1E80810A0E8081044BF51F8043B40F8E8
:1014F000043BD20724BF31F8022B20F8022B44BF53
:101500000B7803707047083A07D3B1E80810083A1F
:1015100040F8043B40F804CBF7D25307E4E700005F
:1015200000B9704738B5A0F108042068082833D303
:1015300010F0070F30D1C046C0461848416809B1C5
:101540008C4203D26160446017E019464B680BB1CE
:10155000A342FAD30B685D18AC421BD3A54204D159
:101560002268D2180A600C4607E04A681AB123685C
:101570001B199A420ED362604C60616851B12268B7
:1015800013198B4206D1002303600868801820607D
:1015900048686060C046C04631BD0000740300204A
:1015A0001B4213D1094236D12AB18446B0FBF2F076
:1015B00002FB10C2704700F0D7BCFCD3002200230E
:1015C00070470B000200002100207047904271EB31
:1015D000030CF6D370B5B1FA81F4B3FA83F52C1B82
:1015E000A340C4F1200532FA05F63343A2405FF070
:1015F0000046E64002E05B085FEA3202841A71EBC3
:10160000030524BF204629467641F4D302000B008F
:101610003000002170BD012ACFD970B5140C20D044
:10162000B1FA81F4B2FA82F5C4F120046419B4F17C
:101630002006D6D3B2405FF00044F440002502E01B
:1016400052085FEA3303C61A71EB020E24BF30461C
:10165000714664416D41F3D302000B002000290064
:1016600070BD0C46B1FBF2F102FB11452D0445EAB9
:101670001045B5FBF2F402FB145580B240EA054573
:10168000B5FBF2F002FB105240EA044070BD30B4EA
:10169000436803F0004201211B031B0B436004BF9E
:1016A0000368002B08D10DE00368DD0F45EA440410
:1016B00044605B000360491E4468E302F4D52303E1
:1016C0001B0B436043681A434260084630BC7047B6
:1016D0004FF4001C1CEB410F94BF1CEB430F09E0BF
:1016E00041EA030C50EA4C0C52EA0C0C03D299422A
:1016F00008BF9042704714BF8B428242704700007F
:101700004FF4001C1CEB410F94BF1CEB430F09E08E
:1017100041EA030C50EA4C0C52EA0C0C03D28B4207
:1017200008BF8242704714BF994290427047000040
:1017300070B504460D466068C0F30A5040F2FF7170
:10174000884207D16068000304BF2068002817D0D2
:10175000022070BD20B92046FFF799FF012868DA02
:10176000012D0FDB40F2FF71091A8D420AD3606828
:1017700000284CBF9FED300B9FED310B84ED000B2B
:10178000012070BD4142A942616806DA6FF31E5123
:10179000401941EA0050606042E0401E636845190C
:1017A000012205F1350062F31F53352801F0004195
:1017B000636003D361600020206070BD002215F1DA
:1017C0001F0F04DA22682360002020356060684221
:1017D00014D0521E25689241C0F12003D2439D408F
:1017E00045EAD272256825FA00F6656805FA03F322
:1017F00033432360636823FA00F56560606808433B
:10180000B2F1004F606003D80DD12078C0070AD52F
:101810002068401C2060206828B96068401C606017
:101820004FF0FF3070BD6068884204BF2068002818
:10183000F6D1002070BD00BF000000000000F0FFE6
:10184000000000000000F07FF446400D40EAC12097
:10185000490006D200F014F8004248BF6FF0004083
:10186000604700F00DF84FF0004188428CBF0846F9
:1018700040426047400D40EAC120490080F00D80A1
:1018800040F00040490DA1F58061491C05D4D1F11B
:101890001F0154BFC840C01770474FF00000704789
:1018A000010040F10980F446404200F005F851F093
:1018B00000416047010000BF09D0B0FA80F18840C4
:1018C000C91CC1F58461090501EBD02140057047B1
:1018D000F0B44FF0004591EA030F44BF6B4000F0B5
:1018E0004FBB00BF841A71EB030604D26E40001B8D
:1018F000B141121973414FF4001C1CEB410F34BF6E
:101900007CEB430684E00C0DA4EB1356362E7DDCF5
:10191000012E43DC45EAC32343EA525312BFD202ED
:1019200092025B08240545EAC12141EA5051D2EBFD
:10193000C020994125D407D1B0FA80F610FA06F1FB
:1019400064D00020203608E0B1FA81F6B140C6F13B
:10195000200220FA02F21143B0404FEAF474B4EBD3
:10196000465434F001064FEA74040AD8D6F500163E
:10197000760D04F00044F04061FA06F25040F14068
:101980004840C00A40EA415021F0004128BF5FEAC8
:10199000500550F1000044EBD12137E045EAC32364
:1019A000DB0A45EAC121C90AB6F120050EDD42EA8B
:1019B0000242120CC5F1200603FA06F6EB4042EA99
:1019C00006056D42984161F100010DE062FA06F5ED
:1019D000F240554063FA06FC82EA0C02F3405A409A
:1019E0006D42904161EB030111F4801F05D1641E2B
:1019F000620502D06D004041494121F48011430845
:101A000075F1004350F1000041EB0451F0BC704708
:101A10001CEB410F15D223F0004352EA43060BD0D2
:101A20004FEA4C0CBCEB410F04D80C0D661E342E53
:101A3000B7DDEBE7801A994150EA410608BF002163
:101A4000E4E708BF1CEB430F28BF6FF00001DDE7A0
:101A5000B0B581EA030C0CF0004C40F2FF7515EABA
:101A600011541DBF15EA1357AC42AF4239E0E419D7
:101A700023EA455343F48013C90241F0004141EA8F
:101A8000505EC7021100A7FB020200284FF00000C1
:101A9000EEFB01204FF00001E3FB072118BF42F0ED
:101AA0000102401800214941E3FB0E01A4F58064C6
:101AB0000F0302D252004041494154F101046CDD50
:101AC000470872F1004250F1000051EB0451A1F5BA
:101AD00080115CBF41EA0C01B0BD4CEA0551002009
:101AE000B0BD05EA1357AC4214BFAF4241E050EA23
:101AF000410E1CBF52EA430E02E061460020B0BD19
:101B000024423C441BD15FEA070EF6D0090302BF12
:101B100001460020AEF1140EB1FA81F7AEEB0704D6
:101B200001FA07FE0C37C7F1200100FA07F7C84099
:101B30004EEA000E23EA455343F48013A2E733F044
:101B40000043B3FA83F704BFB2FA82FE77440B3F37
:101B5000E41BB7F1200E2FBF02FA0EF3BB40C7F112
:101B6000200E22FA0EFE38BF43EA0E03BA40641C70
:101B700082E750EA410E14BF52EA430E6FF00001B3
:101B80004FF4001717EB430F8ABF194617EB410FAD
:101B9000B5E74CEA05510020B0BDD4F10104B4F121
:101BA00020070FDAC4F12007520828BF42F00102D3
:101BB00010FA07F501FA07F7E1BF2A43E04038437E
:101BC000E1400FE0352C98DCC7F1200452EA4002D6
:101BD00020FA07F218BF42F0010231FA07F0A140E3
:101BE0000A43002172F1004250F1000051EB0C0158
:101BF000B0BD00002DE9F04140F2FF7581EA030C11
:101C00000CF0004C15EA11541DBF15EA1357AC42F5
:101C1000AF42E9E0BC41C1F31301C3F31303801ADF
:101C2000994143F4801304D2641E40004941801856
:101C30005941C90241EA5051B1FBF3F603FB1611B9
:101C4000A2FB0675D7EBC020A94102D2761E8018F0
:101C50005941C90241EA5051B1FBF3FE03FB1E1189
:101C6000A2FB0E75D7EBC020A94103D2AEF1010E45
:101C700080185941890241EA9051760546EA8E2E34
:101C8000B1FBF3F603FB1611A2FB0675D7EB802020
:101C9000A94102D2761E80185941C90241EA505129
:101CA0004EEA060EB1FBF3F603FB1611A2FB067516
:101CB000D7EBC020A94102D2761E80185941C90233
:101CC00041EA5051B1FBF3F703FB1711A2FB0735B3
:101CD000D3EBC020A94167F100070CBF004247F0D9
:101CE000010766F3D5274FEA1E31B80814F5806462
:101CF00014DDBD0775F1004250EB0E5051EB04515D
:101D000011F5801F5CBF41EA0C01BDE8F0814CF089
:101D10007F6141F0E0410020BDE8F081BD076D0822
:101D200040EA0E5041F48011D4F10104B4F12006D0
:101D30000ADAC4F120060200E04001FA06F3E140AD
:101D40001843B24015430EE0342C14DCC6F12004D5
:101D500045EA40056D0820FA06F2154321FA06F01F
:101D6000A1400D43002175F1004250F1000051EBFC
:101D70000C01BDE8F08100205FEA0C01BDE8F081B4
:101D8000CFB992185B41B3FA83F704BFB2FA82F677
:101D9000BF190B3FB7F120062FBF02FA06F3BB4075
:101DA000C7F1200622FA06F638BF3343BA401CB109
:101DB000E419641E2FE77F4231F00041B1FA81F44B
:101DC00004BFB0FA80F6A4190B3CB4F120062FBF73
:101DD00000FA06F1A140C4F1200620FA06F638BF49
:101DE0003143A0403C1B16E7AC421ABF05EA13572B
:101DF000AF4214E050EA41061CBF52EA4306BFE777
:101E000050EA4107304661461CBF41EA0551BDE832
:101E1000F08152EA430C08BFC143BDE8F0810020C5
:101E20004FF4001616EB410F98BF16EB430F08BF97
:101E300016EB410F24BFC14305E016EB430F0CBF67
:101E400061464CEA0551BDE8F081000080B51348B9
:101E500000F000F90FF24C020FF2440101604262FF
:101E600041600FF24402826381600FF24402C1605C
:101E70000161416181618162C16201634163C26349
:101E80000164416401BD10B5044800F0E3F8044664
:101E9000206808B9FFF7DAFF204610BD00000020D7
:101EA000000000002E00000066616C7365000000F9
:101EB000747275650000000091FBF2F303FB1211D0
:101EC000C0E900317047000080B5DFF80C0000F079
:101ED000C1F8806902BD00009000002030B430B924
:101EE0000FF24800D0E90045C2E900451BE001704F
:101EF000012030BC704730B431B90FF23800D0E95E
:101F00000045C3E900450EE01AB930BC6FF001008E
:101F1000704708B10A7802800978481E804130BCB9
:101F2000C043C00F7047002030BC70470000000065
:101F300000000000000000000000000007490868E1
:101F400008B1002070470648C008C0000860054975
:101F5000C908C900091A0160704700BFE8030020E2
:101F60000F1400200818002070470000F0B44FF054
:101F7000004591EA030C44BF6B40FFF7B3BC00BFC0
:101F8000841A71EB030603D2001BB141121973418D
:101F90004FF4001C1CEB410F34BF7CEB430443E0C7
:101FA0000C0DA4EB1356352E50DC45EAC323DB0A97
:101FB00045EAC121C912B6F120050DDD63FA05F627
:101FC000EB4086EA0305124218BF45F00105C01830
:101FD00051F100010CD213E062FA06F5F2405540CF
:101FE000F3415A40B340F3405A408018594107D357
:101FF00049085FEA30005FEA350528BF45F0010572
:1020000001F58011420875F1004250F1000041EBEA
:102010000451F0BC4FF4001C1CEB410F38BF70475B
:102020000020090D090570471CEB410F10D252EA40
:1020300043060BD0BCEB410F05D80C0DAB43661E1D
:10204000342EB5DD02E0AB4380185941F0BC704737
:10205000F0BC704770470000C0B2002805D00228CD
:102060002DD017D303283FD052E0C9B2002908D0A1
:102070002D22DFF8E0391A703E22DFF8D8395A7085
:1020800007E03C22DFF8CC391A703E22DFF8C43971
:102090005A703DE0C9B2002908D02D22DFF8B839C6
:1020A0001A703E22DFF8B0395A7007E03C22DFF8A0
:1020B000A8391A703E22DFF8A0395A7028E0C9B258
:1020C000002908D02D22DFF8E03A1A703E22DFF80E
:1020D000D83A5A7007E03C22DFF8CC3A1A703E2218
:1020E000DFF8C43A5A7013E0C9B2002908D02D2293
:1020F000DFF8283C1A703E22DFF8203C5A7007E0D7
:102100003C22DFF8183C1A703E22DFF8103C5A706F
:1021100070470000F8B507000E00FFB2002F0BD08B
:10212000022F79D040D3042F00F0BA80C0F09680FF
:10213000052F00F0CF80E6E0DFF8700A006800F0BD
:1021400063FF04000D0076B23000FFF7A9FBDFF853
:10215000602ADFF8603AFFF77BFC22002B00FFF7D4
:1021600005FF00F079FFDFF8441A0860DFF83C0A49
:1021700090ED000ADFED640AB4EE600AF1EE10FAA9
:1021800004DBDFF8280A5FF07E510160DFF81C0AEB
:1021900090ED000AB5EE400AF1EE10FA03D5DFF833
:1021A0000C0A00210160AEE0DFF80C0A006800F0C4
:1021B0002BFF04000D0076B23000FFF771FBDFF853
:1021C000F029DFF8F039FFF743FC22002B00FFF77E
:1021D000CDFE00F041FFDFF8E0190860DFF8D80914
:1021E00090ED000ADFED480AB4EE600AF1EE10FA55
:1021F00004DBDFF8C4095FF07E510160DFF8B80945
:1022000090ED000AB5EE400AF1EE10FA03D5DFF8C2
:10221000A8090021016076E0DFF8A00990F900002C
:1022200076B2052116FB01F141FA80F0DFF88C1936
:102230000870DFF8880990F90000292803DB2820BE
:10224000DFF878190870DFF8740990F900000528A4
:1022500003DA0520DFF86419087054E0DFF860093C
:1022600090F9000076B2052116FB01F141FA80F0E9
:10227000DFF84C190870DFF8480990F900002928A8
:1022800003DB2820DFF838190870DFF8340990F9EB
:102290000000052803DA0520DFF82419087032E071
:1022A000DFF87C0A00783018DFF8741A0870DFF85D
:1022B000700A0078032803DB0220DFF8641A087034
:1022C000DFF85C0A0078002803D10120DFF8501AFB
:1022D000087018E0DFF8340C00783018DFF82C1C98
:1022E0000870DFF8280C0078032803DB0220DFF8F1
:1022F0001C1C0870DFF8140C0078002803D10120A2
:10230000DFF8081C0870F1BD0100803F10B582B0F5
:10231000002400A8DFF80C1A0A68026000F0F5FE3D
:10232000042000F0EFFE00F0FDFEDFF8FC1908606D
:10233000DFF8F4090068DFF8F4190968401A0400AE
:10234000DFF8E4090068DFF8E4190860DFF8E00965
:10235000007800281AD0DFF8DC09006840FA84F021
:10236000DFF8D0190860DFF8CC090068002803D531
:102370000020DFF8C0190860DFF8B80900680428F9
:102380000DDB0320DFF8AC19086008E0210049B23A
:1023900000A8DFF8A0291268105CFFF7BBFE00F070
:1023A000C5FE002828D000A8DFF888190968085C55
:1023B000062816D1DFF868090078022807D1012223
:1023C0004FF48051DFF8700901F023F806E0002295
:1023D0004FF48051DFF8600901F01BF800F095FE22
:1023E00047E0DFF84C09007890F00100DFF8401971
:1023F0000870642001F07EF8DFF8B007006800F094
:1024000003FE02000B00DFF83419DFF81C0B01F0AB
:1024100083F8DFF8A80790F90020DFF82419DFF827
:10242000380601F079F8DFF8F8080278DFF81419B7
:10243000DFF8740701F070F8DFF80C19DFF8DC083A
:1024400001F06AF8DFF8E8080178DFF8E8080068CA
:10245000C0B2FFF701FEDFF8C438DFF84C27DFF821
:10246000F815DFF8C40A01F029F9642001F042F8F8
:1024700059E713BD10B582B0002400A8DFF8CC18CE
:102480000A68026000F041FE042000F03BFE00F00C
:1024900049FEDFF8BC180860DFF8B4080068DFF810
:1024A000B4180968401A0400DFF8A4080068DFF8CF
:1024B000A4180860DFF8740A007800281AD0DFF842
:1024C000700A006840FA84F0DFF8641A0860DFF8E8
:1024D000600A0068002803D50020DFF8541A08605D
:1024E000DFF84C0A006804280DDB0320DFF8401AEF
:1024F000086008E0210049B200A8DFF8342A126819
:10250000105CFFF707FE00F011FE002828D000A89D
:10251000DFF81C1A0968085C062816D1DFF8EC09F8
:102520000078022807D101224FF48051DFF8040A15
:1025300000F06FFF06E000224FF48051DFF8F4094D
:1025400000F067FF00F0E1FD47E0DFF8E009007808
:1025500090F00100DFF8D4190870642000F0CAFF81
:10256000DFF85406006800F04FFD02000B00DFF8B2
:10257000C819DFF8B40900F0CFFFDFF8440690F97E
:102580000020DFF8B819DFF8D00400F0C5FFDFF84D
:102590007C090278DFF8A819DFF80C0600F0BCFF10
:1025A000DFF8A417DFF8740700F0B6FFDFF87C0946
:1025B0000178DFF87C090068C0B2FFF74DFDDFF855
:1025C0005C37DFF8E425DFF89014DFF85C0901F0F0
:1025D00075F8642000F08EFF59E713BD80B5DFF871
:1025E0006419DFF8440900F097FFDFF85C19DFF8A1
:1025F000680400F091FFDFF85419DFF8AC0500F033
:102600008BFFDFF84C19DFF8140700F085FFDFF8C7
:102610000C37DFF89425DFF84014DFF80C0901F0DF
:102620004DF80A2000F066FFD9E700001CB5002431
:1026300001A8DFF820190A68026000F066FD042096
:1026400000F060FDDFF8740590F9000001F08EF8ED
:10265000DFF86C0590F9000001F08BF800F062FDE6
:10266000DFF8F4180860DFF8F0080068DFF8EC180D
:102670000968401A0400DFF8E0080068DFF8DC1899
:102680000860DFF8DC08007800281AD0DFF8D408EA
:10269000006840FA84F0DFF8CC180860DFF8C4085E
:1026A0000068012803DA0120DFF8B8180860DFF8B5
:1026B000B408006804280DDB0320DFF8A8180860C0
:1026C00008E0210049B201A8DFF898281268105CE0
:1026D000FFF720FD00F02AFD002828D001A8DFF830
:1026E00084180968085C062816D100F00EFDDFF892
:1026F000300601780120B7EE000A01F040FB00F03F
:10270000FDFCDFF8080801780120B7EE000A01F0AF
:10271000F9FB00F0EFFCEDE0DFF84408007890F002
:102720000100DFF83C180870642000F0E3FEDFF8D9
:102730003818C84800F0F0FE01F01EF80090DFF8ED
:102740006C04006800F060FC02000B00DFF81C184D
:10275000C14800F0E1FE01F012F80090DFF85804E3
:10276000006800F051FC02000B00DFF80418DFF8ED
:10277000380400F0D1FEDFF8FC17DFF8A00500F008
:10278000CBFEDFF8DC070178DFF8D8070068C0B2BD
:10279000FFF762FC00F0A8FC00281CD000F0ECFF62
:1027A000012818DBDFF8780501780020DFF8FC232A
:1027B00092ED000ADFEDA40A20EE200ABDEEC00A69
:1027C000B8EEC00A01F0DBFA012802D100F0C2FF26
:1027D00001E000F0BBFF00F087FC00280BD000F008
:1027E000CBFF002807D1DFF83805017801209FEDE5
:1027F000970A01F0C4FA00F077FC00280DD100F030
:10280000BBFF012809DB00F0A5FFDFF81405017804
:1028100001209FED8E0A01F0B2FA00F068FC00285A
:102820001BD000F0ACFF012817DBDFF8E0060178D1
:102830000020E14A92ED000ADFED830A20EE200A33
:10284000BDEEC00AB8EEC00A01F05CFB012802D15F
:1028500000F088FF01E000F081FF00F048FC002854
:102860000BD000F08CFF002807D1DFF8A00601781C
:1028700001209FED760A01F045FB00F038FC0028AE
:102880000DD100F07CFF012809DB00F06BFFDFF8C1
:102890007C06017801209FED6D0A01F033FBDFF823
:1028A0007C34C14A6C496B4800F008FF0A2000F0F4
:1028B00021FE01F0C9F8DFED660AB4EE600AF1EE20
:1028C00010FA7FF5CBAEDFF84406017800209FEDCB
:1028D0005F0A01F017FBDFF84804017800209FED44
:1028E0005B0A01F04CFA00F068FF00F04FFFFFF7C1
:1028F00075FEB3E613BD000010B582B0002400A839
:10290000DFF874160A68026001220421DFF8280447
:1029100000F07FFD01F013FC00F0F7FB042000F055
:10292000F1FB00F0FFFBDFF854160860DFF84C06FF
:102930000068DFF84C160968401A0400DFF83C060E
:102940000068DFF83C160860DFF8380600780028D9
:102950001AD0DFF83406006840FA84F0DFF8281651
:102960000860DFF824060068002803D50020DFF89F
:1029700018160860DFF81006006802280DDB012039
:10298000DFF80416086008E0210049B200A8DFF86B
:10299000F8251268105CFFF7BDFB00F0C7FB0028AC
:1029A0001BD000A8DFF8E0150968085C062811D1E3
:1029B00000F0ABFB00F0CEFE002101209FED230ACA
:1029C00001F0DDF901F08EFB00220421DA4800F06D
:1029D00020FD37E0642000F08DFDDFF8B0151D48C4
:1029E00000F09AFDDFF8A8151B4800F095FDDFF810
:1029F00060156D4800F090FDDFF85415C74800F0F1
:102A00008BFDDFF880050178DFF87C050068C0B237
:102A1000FFF722FBC14B644A0F490E4800F04EFEFF
:102A20000A2000F067FD01F0DDFB01F00DF8DFED9D
:102A3000080AB4EE600AF1EE10FA7FF572AFFFF704
:102A4000CDFD6EE713BD000000007A4400000000D9
:102A5000CDCC1441F40200201403002010B582B044
:102A6000002400A8DFF82C150A68026000F04DFB76
:102A7000042000F047FB00F055FBDFF81C15086050
:102A8000DFF814050068DFF814150968401A04001F
:102A9000DFF804050068DFF804150860DFF80005BA
:102AA000007800281AD0DFF8FC04006840FA84F0AF
:102AB000DFF8F0140860DFF8EC040068012803DA9E
:102AC0000120DFF8E0140860DFF8D804006803286C
:102AD0000DDB0220DFF8CC14086008E0210049B2C9
:102AE00000A8DFF8C0241268105CFFF713FB00F0A9
:102AF0001DFB002817D000A8DFF8A8140968085C9F
:102B0000062802D100F001FB4CE000A8DFF8941485
:102B10000968085C072803D100F0F7FAFFF7ECFE1C
:102B2000642000F0E7FC00F08FFF10EE100A00F0C8
:102B30006BFA02000B00DFF87014DFF8EC0300F012
:102B4000EBFCDFF84814DFF8640400F0E5FCDFF884
:102B50004014154800F0E0FCDFF8F4136F4800F073
:102B6000DBFCDFF83C040178DFF838040068C0B211
:102B7000FFF772FA694B0C4ADFF83014DFF8A8034C
:102B800000F09CFD0A2000F0B5FC00F05DFFDFEDD9
:102B9000620AB4EE600AF1EE10FA7FF56CAFFFF74F
:102BA0001DFD68E713BD000034030020FC00002079
:102BB0007B14AE47E17A843F000100201101002020
:102BC0001201002010B5002400F0C2FF4FF4FA708B
:102BD00000F090FC00F0D3FF042000F093FA00F026
:102BE000A1FADFF8CC130860DFF8C4030068DFF84F
:102BF000C4130968401A0400DFF8B4030068DFF862
:102C0000B4130860DFF8B003007800281AD0DFF8AA
:102C1000AC03006840FA84F0DFF8A0130860DFF826
:102C20009C030068002803D50020DFF8901308609B
:102C3000DFF88803006804280CDB0320DFF87C132E
:102C4000086007E0210049B2DFF870030068C0B2F5
:102C5000FFF760FA00F06AFA002830D0DFF85C0372
:102C60000068002805D0022815D00BD303281BD0FC
:102C700022E000F04AFAFFF749FBCD48006800F077
:102C80004BFA19E000F041FAFFF7F4FBC84800687E
:102C900000F042FA10E000F038FAFFF7C7FCC44831
:102CA000006800F039FA07E000F02FFAFFF7D6FECF
:102CB000BF48006800F030FA642000F01BFCC049F7
:102CC000994800F029FCBF49B84800F025FCBE49EE
:102CD000BE4800F021FCBE49104800F01DFCB6487B
:102CE0000178B6480068C0B2FFF7B6F90B4BB74A97
:102CF000AE498D4800F0E2FC642000F0FBFB00F0E0
:102D0000A3FEDFED050AB4EE600AF1EE10FA01D57C
:102D1000FFF764FC10BD0000CDCC1441540300202B
:102D200013010020506C0008980300209C03002031
:102D3000150100209403002000000240D069000823
:102D4000E4690008F86900080C6A0008546C00087F
:102D5000A4030020A80300201FB540F616500190E0
:102D6000002403A89B490A68026001989A490860F8
:102D70000C219A4801F079FB00F0A5FE8DED020AC6
:102D800000F062FE8DED000A029800F03DF90200AD
:102D90000B009349644800F0BFFB009800F034F941
:102DA00002000B008F49814800F0B6FB8E4987482E
:102DB00000F0B2FB8D498E4800F0AEFB9DED000A9D
:102DC000DFED530AB4EE600AF1EE10FA1ED5029858
:102DD00000F01AF90022874BFFF7C8F80022002301
:102DE000FEF78EFC02D20198401C0190029800F080
:102DF0000BF900227F4BFFF7B9F800220023FEF702
:102E000067FC75D20198401E019071E09DED000AAB
:102E1000DFED400AB4EE600AF1EE10FA02DB019831
:102E2000401E01909DED000ADFED390AB4EE600A04
:102E3000F1EE10FA0BDB9DED000ADFED370AB4EE80
:102E4000600AF1EE10FA02D50198401C01909DED48
:102E5000020ADFED320AB4EE600AF1EE10FA08DA87
:102E60009DED000ADFED2E0AB4EE600AF1EE10FAD5
:102E70003EDB0C21594801F01EFB9DED000ADFED01
:102E8000290AB4EE600AF1EE10FA2DDB00F01BFE09
:102E90008DED020A00F0D8FD8DED000A009800F0DB
:102EA000B3F802000B0054491F4800F035FB0098AE
:102EB00000F0AAF802000B0050493C4800F02CFB3F
:102EC00046224F49414800F027FB4E49484800F050
:102ED00023FB474B3D4A3549134800F0EFFB4FF4C5
:102EE0007A7000F007FBC8E70C213C4801F0BDFAFE
:102EF0000198394908603E4B344A2C490A4800F091
:102F0000DDFB642000F0F6FA36E700001401002033
:102F10007B144A415D8F4A4167664A41999919BEBF
:102F200034335341CDCC4441F4020020160100203B
:102F3000A003002000080240206A0008346A00084C
:102F4000486A00085C6A0008706A0008846A000821
:102F5000986A0008586C0008AC030020B0030020F9
:102F60001701002004010020AC6A0008C06A0008B4
:102F7000D46A0008E86A00085C6C0008B803002006
:102F8000BC03002018010020B4030020FC6A0008E4
:102F9000106B0008606C0008C0030020C403002010
:102FA0001901002008010020246B000814030020F0
:102FB000CC030020D00300201A010020C803002009
:102FC000386B00084C6B0008606B0008340300206D
:102FD000746B0008646C000840040140B8020020D3
:102FE000886B0008146C00089C6B0008B06B00082C
:102FF000540300200000F03FC46B0008D86B0008A9
:10300000EC6B0008006C00085FF0FF0C1CEAD0516C
:1030100014BF614506E0C110400721F0E04101F115
:103020006051704779B900F0004100020AD0B0FA4F
:1030300080FC00FA0CF001F16051A1EB0C5101EBA6
:10304000D0214005704741020CBF40F4E0016FF011
:1030500000010020704700004FEAF17CBCF1E04C19
:103060002CBFBCF5001F11E05FEA4C0C34BFBCF173
:103070007F5F2EE05FEA9C0C4FEA0C1C4FEA3C0C91
:10308000C10071F100414CEB50707047C90241EA38
:103090005051C00218BF41F0010141F000414FEA18
:1030A0006C50C0F10900212810D240EACC7CCCF150
:1030B000200C11FA0CF070F10040CCF1200C21FA38
:1030C0000CF00CF0004C40EB0C0070474FEACC7059
:1030D0007047490011F5001F04D84FEACC10FF30AB
:1030E000C0057047C817704741480078704741488D
:1030F0000078704700203F490870704700203C4925
:10310000087070473C490870704700203B490860D0
:1031100000203B4908607047394908600021374A60
:1031200011607047364909680800704735490978C9
:1031300008000021334A1170C0B2704710B5040076
:10314000A4B2200008280CD0102826D0202804D0B3
:1031500040283ED0802843D049E00120294908700A
:1031600045E01021284800F048F9012814D12348EF
:103170000068401C214908602048006801F0A4FC58
:103180001D490978884207DB1D480068401C1C491E
:10319000086000201949086029E008211A4800F059
:1031A0002CF9012814D115480068401E1349086005
:1031B0001248006801F088FC0F490978884207DB53
:1031C0000F480068401E0E49086000200B49086047
:1031D0000DE00748007890F001000549087006E00E
:1031E0000448007890F0010002490870FFE710BD24
:1031F000EF030020F00300201001002090030020C6
:103200008C030020EE03002000080240F8B40023E5
:103210000024002500263200102A80F0EC800126D0
:10322000964033000E681E4034009C4240F0E1801E
:103230004E68022E02D04E68122E16D1D60810EB20
:103240008606366A35000F2612F00707FFB2BF0068
:10325000BE40B5430E6912F00707FFB2BF00BE4083
:103260003543D60810EB860635620668350003261E
:103270001700FFB27F00BE40B5430E7916F003067B
:103280001700FFB27F00BE40354305604E68012E37
:1032900008D04E68022E05D04E68112E02D04E681E
:1032A000122E19D18668350003261700FFB27F0061
:1032B000BE40B543CE681700FFB27F00BE40354325
:1032C00085604668350001269640B5434E68C6F3D2
:1032D0000016964035434560C66835000326170042
:1032E000FFB27F00BE40B5438E681700FFB27F007B
:1032F000BE403543C5604E68F6007AD5002600967C
:10330000504E366856F480464E4F3E604D4E3668FD
:1033100016F480460096009E4B4E970856F827609C
:1033200035000F2612F00307FFB2BF00BE40B543C1
:10333000464EB04201D1002628E0454EB04201D1B0
:10334000012623E0434EB04201D102261EE0424E48
:10335000B04201D1032619E0404EB04201D104260B
:1033600014E03F4EB04201D105260FE03D4EB04281
:1033700001D106260AE03C4EB04201D1072605E005
:103380003A4EB04201D1082600E00926F6B212F00A
:103390000307FFB2BF00BE4035432B4E970846F8E7
:1033A0002750334E36683500A5434E68F60300D5E6
:1033B00025432F4E35602F4E36683500A5434E68A5
:1033C000B60300D525432B4E35602B4E36683500AD
:1033D000A5434E68F60200D52543274E3560274E9B
:1033E00036683500A5434E68B60200D52543234E06
:1033F0003560521C10E7F1BC70470200136989B2B6
:103400000B4202D00123180001E000231800C0B2D3
:103410007047D2B2002A02D089B2816102E089B23B
:103420000B048361704710B5040015480068A4B20E
:10343000204206D0A4B212480460200080B2FFF7F8
:103440007DFE10BD443802400838014000000240B3
:103450000004024000080240000C0240001002403C
:103460000014024000180240001C024000200240EC
:10347000003C0140043C0140083C01400C3C014040
:10348000143C014080B52248006850F40070204987
:1034900008601F48006850F480601D4908601C489F
:1034A000006850F480701A490860032001F078FB2E
:1034B000002000F004F801F0BFFB002002BD10B5B1
:1034C000040001F0C2FF4FF47A71B0FBF1F001F09B
:1034D00087FB002221005FF0FF3001F067FB002036
:1034E00010BD0C480068401C0A4908607047094834
:1034F0000068704711B581B00024FFF7F8FF0400A1
:10350000FFF7F5FF001B01998842F9D313BD0000B6
:10351000003C0240DC0300200CB41CB5044604A8A7
:1035200001900A46009401AB00A90748784418307E
:10353000FCF72AFE009A0021117000285CBF009859
:10354000001B16BC5DF80CFBEFDDFFFF70B504003F
:10355000012600200500EDB2082D14DAE4B2E007E0
:1035600006D50122310089B24B48FFF752FF05E032
:103570000022310089B24848FFF74BFFE4B26408EB
:1035800076006D1CE7E770BD10B5040000224FF413
:1035900000514148FFF73DFF00224FF480513E4863
:1035A000FFF737FF00224FF480413B48FFF731FF20
:1035B0002000C0B2FFF7CAFF0120FFF79BFF0122E6
:1035C0004FF480413448FFF724FF0120FFF792FFBA
:1035D00000224FF480413048FFF71BFF00224FF4D8
:1035E00000512D48FFF715FF00224FF480512A4863
:1035F000FFF70FFF00224FF480412748FFF709FF34
:103600000120FFF777FF10BD10B5040000224FF432
:1036100000512148FFF7FDFE01224FF480511E4862
:10362000FFF7F7FE00224FF480411B48FFF7F1FE41
:10363000E4B2C02C04DB1948E4B2201810F8C04CE6
:103640002000C0B2FFF782FF0120FFF753FF0122E5
:103650004FF480411048FFF7DCFE0120FFF74AFFDE
:1036600000224FF480410C48FFF7D3FE00224FF4B4
:1036700000510948FFF7CDFE00224FF48051064863
:10368000FFF7C7FE00224FF480410348FFF7C1FE59
:103690000120FFF72FFF10BD00040240E86800087A
:1036A00080B50120FFF770FF0620FFF76DFF0C20AB
:1036B000FFF76AFF3820FFF767FF01BD2DE9F041F2
:1036C00004000D0016001F008020FFF75DFF0020A2
:1036D0008046B8F1100F06DA18F80400FFF794FFDF
:1036E00018F10108F5E78820FFF74EFFC020FFF72B
:1036F0004BFF00208046B8F1100F06DA18F80500DD
:10370000FFF782FF18F10108F5E79020FFF73CFF73
:1037100000208046B8F1100F06DA18F80600FFF70F
:1037200073FF18F10108F5E7D020FFF72DFF002007
:103730008046B8F1100F06DA18F80700FFF764FFAB
:1037400018F10108F5E7BDE8F081000001206F499C
:103750000870704700206D490870704701206C495F
:103760000870704700206A4908707047694908600E
:103770007047694908607047664800687047664846
:1037800000687047012065490870704780B50022C5
:103790004FF480716248FFF73CFE00205F490870DB
:1037A00001BD01205F490870704700205D49087025
:1037B000704701205C490870704780B500224FF4C3
:1037C00000715748FFF725FE00205749087001BDDA
:1037D000012056490870704700205449087070470E
:1037E00080B54E48007800281AD04E48007800284E
:1037F00016D04F480078002806D001224FF480717F
:103800004748FFF706FE05E000224FF48071444868
:10381000FFF7FFFD4648007890F00100444908702A
:103820003E480078002809D03E480078002805D19D
:1038300001224FF480713A48FFF7EBFD37480078DA
:10384000002805D100224FF480713548FFF7E1FDD3
:103850003548007800281AD034480078002816D05F
:1038600034480078002806D001224FF400712C481B
:10387000FFF7CFFD05E000224FF400712848FFF765
:10388000C8FD2C48007890F001002A4908702648AD
:103890000078002809D025480078002805D10122A9
:1038A0004FF400711E48FFF7B4FD1F480078002850
:1038B00005D100224FF400711948FFF7AAFD1E48F8
:1038C0000078401C1C4908701B4800783C281CDB11
:1038D0000020194908700D480078002808D00D48CC
:1038E0000068012804DB0B480068401E0949086095
:1038F00007480078002808D007480068012804DB42
:1039000005480068401E0449086001BDF903002015
:10391000FA030020E0030020E4030020FB03002062
:1039200000040240FC030020FD030020FE030020F1
:103930000004002001040020FF03002000B585B032
:10394000DFF83C07DFF83C1708605FF48030DFF8F1
:10395000341748600020DFF82C1788600020DFF85B
:10396000241708610120DFF81C1788610020DFF8A8
:10397000141748620020DFF80C1708630020DFF8F6
:103980000417C8600120DFF8FC1608620020DFF889
:10399000F416C8610120DFF8EC164861DFF8E40690
:1039A00001F08CFD01200090012001900020029088
:1039B00000A9DFF8D00601F049FE05B000BD80B5D2
:1039C0002DED028B86B00B2001900120029000208B
:1039D000039001A9DFF8AC0601F038FEDFF8A40679
:1039E00001F090FD6421DFF89C0601F0F2FDDFF8A4
:1039F000940601F028FE0090DFF8880601F0DDFD56
:103A00009DED000AB8EEC00A10EE100AFFF7FCFAAE
:103A1000DFF87426DFF87436FEF71AF8DFF8702640
:103A2000DFF87036FEF714F8DFF86C26DFF86C3636
:103A3000FEF79CFAFFF710FB08EE100AB0EE480AFA
:103A400006B0BDEC028B01BD80B52DED028B86B0BA
:103A500004200190012002900020039001A9DFF8CA
:103A6000240601F0F3FDDFF81C0601F04BFD642194
:103A7000DFF8100601F0ADFDDFF8080601F0E3FD08
:103A80000090DFF8000601F098FD9DED000AB8EE09
:103A9000C00A10EE100AFFF7B7FADFF8EC25DFF8DE
:103AA000EC35FDF7D5FFDFF8F825DFF8F835FDF741
:103AB000CFFFFFF7D1FA08EE100AB0EE480A06B0C1
:103AC000BDEC028B01BD80B52DED028B86B00C20C4
:103AD0000190012002900020039001A9DFF8A405C5
:103AE00001F0B4FDDFF89C0501F00CFD6421DFF866
:103AF000940501F06EFDDFF88C0501F0A4FD009047
:103B0000DFF8800501F059FD9DED000AB8EEC00A0E
:103B100010EE100AFFF778FADFF86C25DFF86C3545
:103B2000FDF796FFDFF87025DFF87C35FEF71EFA0B
:103B3000DFF87825DFF87835FEF75CF8FFF78CFAC8
:103B400008EE100AB0EE480A06B0BDEC028B01BDCB
:103B500080B501224FF40041DFF85805FFF759FC0A
:103B600001224FF40061DFF84C05FFF752FC0122FF
:103B70004FF48071DFF83C05FFF74BFC01BD80B5C9
:103B800001224FF40051DFF83005FFF742FC01221B
:103B90004FF40061DFF82005FFF73BFC0122042110
:103BA000DFF81805FFF735FC01BD10B584B0112012
:103BB0008DF8040000208DF8050000224FF480717C
:103BC000DFF8F004FFF725FC64200090022302AA2E
:103BD00001A9DFF8EC0401F0FFFE01224FF480712F
:103BE000DFF8D004FFF715FC9DF80800040024025C
:103BF0009DF8090004432405240D200004B010BDE5
:103C000010B584B011208DF8040000208DF8050057
:103C100000220421DFF8A404FFF7FBFB64200090DE
:103C2000022302AA01A9DFF8980401F0D5FE0122BF
:103C30000421DFF88804FFF7ECFB9DF8080004007E
:103C400024029DF8090004432405240D200004B03B
:103C500010BD10B584B019208DF8040000208DF837
:103C6000050000224FF48071DFF84804FFF7D1FB14
:103C700064200090022302AA01A9DFF8440401F0A5
:103C8000ABFE01224FF48071DFF82804FFF7C1FB7F
:103C90009DF80800040024029DF80900044324054F
:103CA000240D200004B010BD10B584B019208DF88B
:103CB000040000208DF8050000220421DFF8FC0339
:103CC000FFF7A7FB64200090022302AA01A9DFF8F6
:103CD000F00301F081FE01220421DFF8E003FFF789
:103CE00098FB9DF80800040024029DF80900044395
:103CF0002405240D200004B010BD10B584B00400CC
:103D000020128DF8040020008DF8050000224FF4E9
:103D10000061DFF8A003FFF77CFB64200090022322
:103D200002AA01A9DFF8980301F056FE01224FF420
:103D30000061DFF88003FFF76CFB1FBD10B584B096
:103D4000040020128DF8040020008DF805000022E8
:103D50004FF40061DFF86003FFF75BFB6420009025
:103D6000022302AA01A9DFF8580301F035FE01225F
:103D70004FF40061DFF84003FFF74BFB1FBD2DE957
:103D8000F0412DED028BB0EE408A04000D00DFF80B
:103D900034030068401CDFF82C130860DFF82403AC
:103DA0000068012801DA0420A8E00020C549086065
:103DB00018EE100AFFF728F9C34AC44BFDF748FE76
:103DC000FDF742FD0600E4B2002C0DD0C0480068AB
:103DD000002809D10020FFF790FF0020BC490860AF
:103DE000FFF7D4FC022089E0E4B2002C10D0B7EE3B
:103DF000000AB4EE408AF1EE10FA09D10020FFF774
:103E00007CFF0020B2490860FFF7C0FC022075E08B
:103E1000AF480068B0420EDAAD4800686430AC4983
:103E20000860AB480068864201DAA9480660A848E5
:103E30000068FFF762FFA648006886420EDAA448D1
:103E400000686438A2490860A1480068B04201DAFD
:103E50009F4806609E480068FFF74FFFFFF7A5FEEA
:103E6000401C8046FFF7F5FE401C0700FFF78AFC68
:103E7000EDB2022D24D19648006890FBF7F014288B
:103E800005DB9348006890FBF8F0142807DAFFF789
:103E900088FC01208F49087000208D4908608C48FB
:103EA000006890FBF7F0142805DA8948006890FB59
:103EB000F8F0142804DBFFF778FC0020854908702F
:103EC000EDB2012D18D18248006890FBF7F014285C
:103ED00007DAFFF766FC00207D49086001207D4974
:103EE00008707B48006890FBF7F0142804DBFFF7AC
:103EF0005CFC00207749087076480078BDEC028BA6
:103F0000BDE8F0812DE9F0412DED028BB0EE408A45
:103F100004000D0070480068401C6F4908606E483E
:103F20000068012801DA0420A5E000206A49086041
:103F300018EE100AFFF768F8634A644BFDF788FD36
:103F4000FDF782FC0600E4B2002C0DD06348006847
:103F5000002809D10020FFF7F1FE00205F4908602A
:103F6000FFF72BFC022086E0E4B2002C10D0B7EE65
:103F7000000AB4EE408AF1EE10FA09D10020FFF7F2
:103F8000DDFE002055490860FFF717FC022072E0B3
:103F900052480068B0420EDA5048006864304F4919
:103FA00008604E480068864201DA4C4806604B487B
:103FB0000068FFF7C3FE4948006886420EDA4748AA
:103FC000006864384549086044480068B04201DA36
:103FD0004248066041480068FFF7B0FEFFF710FE58
:103FE000401C8046FFF760FE401C0700FFF7E1FB26
:103FF000EDB2022D24D13948006890FBF7F0142867
:1040000005DB3648006890FBF8F0142807DAFFF764
:10401000DFFB0120324908700020304908602F483A
:10402000006890FBF7F0142805DA2C48006890FB34
:10403000F8F0142804DBFFF7CFFB002028490870B4
:10404000EDB2012D15D12548006890FBF7F014283A
:1040500004DAFFF7BDFB0120214908701F48006802
:1040600090FBF7F0142804DBFFF7B6FB00201C4997
:1040700008701B480078BDEC028BBDE8F0810000A1
:1040800000200140F80100204E062E2C0B684A3F0C
:10409000D1915CFE433A184085EB51B81E85E33F51
:1040A000728A8EE4F2BF18401E85F3BF1F85EB5164
:1040B000B81EF33F0000024000080240000C02401E
:1040C000A00100207C0300205F07CE19515A29402F
:1040D00080030020EC0300208403002088030020DC
:1040E000ED0300200120DFF8681208700020DFF8DF
:1040F000641208600020DFF8601208600520DFF815
:104100005C1208700520DFF8581208700120DFF8F3
:10411000541208700120DFF8501208700020DFF8F8
:104120004C1208700020DFF8481208700020DFF8F9
:10413000441208700020DFF8401208707047002019
:10414000DFF80C120870704780B5DFF820020078A5
:10415000002814D0FFF710FB012810DB00210020FD
:10416000DFF8F02192ED000AB8EEC00AFFF707FE73
:10417000012802D1FFF7EEFA01E0FFF7E7FADFF8D6
:10418000EC010078002809D0FFF7F6FA002805D1E5
:10419000002100209FED6D0AFFF7F1FDDFF8CC0153
:1041A0000078002809D1FFF7E7FA002805D100219F
:1041B00000209FED660AFFF7E2FDDFF8B00100780E
:1041C00000280ED1FFF7D8FA01280ADBFFF7C2FA60
:1041D000002101205F4A92ED000AB8EEC00AFFF705
:1041E000CEFD01BD2DE9F04F89B05FF0000A5FF010
:1041F000000B05240525012601275FF000085FF06C
:1042000000095E480078002800F099805C484078FA
:1042100080465B480078060059488078040058487A
:10422000C07882465FEA0A2A5548007950EA0A0AAD
:104230005348807981465248407907005048C079F8
:1042400005004F48007A83465FEA0B2B4C48407AC2
:1042500050EA0B0B454880F800803E48C0F800A0AB
:104260004848007800281AD15FFA88F8B8F1000FA2
:1042700015D03C4806703D4880F800803548C0F8AD
:1042800000A03648047000203A49087001203D49DA
:104290000870E4B22000FFF769FAFFF757FA3948CF
:1042A0000078002807D05FFA88F8B8F1000F02D133
:1042B000002034490870FFF75FFA009000988DF8ED
:1042C0000400FFF75CFA009000988DF80700FFF7F4
:1042D0006CFC642190FBF1F08DF8050000208DF856
:1042E000060000208DF8080000208DF809002648FF
:1042F0000078002803D04B208DF80A0002E05220FD
:104300008DF80A001B4800788DF80B001A480078D9
:104310008DF80C001C48007890F001001A490870D4
:104320000A208DF80D000D208DF80E000A230B22B7
:1043300001A9164801F082FD002010490870FFF71E
:1043400003FF012009B0BDE8F08F0000000000006D
:10435000F6030020D4030020D80300201B01002016
:104360001C0100201D0100201E010020F20300207E
:10437000F3030020F4030020F5030020F1030020E4
:1043800020010020F8030020F70300203C02002059
:1043900010B50400002C01D1012014E094F839007C
:1043A000002805D1002084F83800200000F09FFC90
:1043B000022084F83900211D206800F005FA012050
:1043C00084F83900002010BD01000868C06850F072
:1043D00001000A68D0600868006850F001000A68AF
:1043E00010600020704710B50400002C01D101209E
:1043F00014E094F83900002805D1002084F8380032
:10440000200000F00CF8022084F83900211D2068FB
:1044100000F0DAF9012084F83900002010BD10B551
:1044200086B0040000200090DFF81401006850F00E
:104430000200DFF80C110860DFF80401006810F0DA
:104440000200009000984FF400700190022002904A
:1044500000200390022004900320059001A9DFF8BA
:10446000E400FEF7D3FE06B010BD38B504000D0021
:1044700001222900206800F059FA2068DFF8B810FE
:10448000884204D02068DFF8B410884201D10120AE
:1044900000E00020C0B2002805D02068406C50F435
:1044A0000040216848642068006850F001002168DD
:1044B0000860002032BD38B504000D00002229003C
:1044C000206800F033FA2068DFF86C10884204D0CE
:1044D0002068DFF86810884201D1012000E0002048
:1044E000C0B2002811D02068006A41F211110842C0
:1044F0000BD12068006A40F24441084205D120688F
:10450000406C30F40040216848642068006A41F241
:10451000111108420BD12068006A40F24441084260
:1045200005D120680068400840002168086001202B
:1045300084F83900002032BD000001400004014031
:10454000443802400008024010B5040020680069A9
:1045500080071AD52068C068800716D57FF0020052
:1045600021680861012020762068806910F0030F1F
:1045700003D0200000F025F905E0200000F020F92C
:10458000200000F01FF90020207620680069400715
:104590001AD52068C068400716D57FF0040021684E
:1045A0000861022020762068806910F4407F03D0E3
:1045B000200000F006F905E0200000F001F92000DD
:1045C00000F000F9002020762068006900071AD565
:1045D0002068C068000716D57FF0080021680861D0
:1045E000042020762068C06910F0030F03D020005B
:1045F00000F0E7F805E0200000F0E2F8200000F00D
:10460000E1F80020207620680069C0061AD52068ED
:10461000C068C00616D57FF0100021680861082028
:1046200020762068C06910F4407F03D0200000F09D
:10463000C8F805E0200000F0C3F8200000F0C2F840
:104640000020207620680069C0070AD52068C0686D
:10465000C00706D57FF0010021680861200000F046
:10466000AEF82068006900060AD52068C068000618
:1046700006D57FF0800021680861200001F08EFEE1
:104680002068006940060AD52068C068400606D543
:104690007FF0400021680861200000F094F8206855
:1046A000006980060AD52068C068800606D57FF0BC
:1046B000200021680861200001F06FFE10BD70B578
:1046C00004000D00160094F83800012801D10220E2
:1046D00074E0012084F83800022084F839003000AA
:1046E000002806D004281BD0082831D00C2846D03A
:1046F0005DE02900206800F028F92068806950F00A
:104700000800216888612068806930F00400216811
:10471000886120688069296908432168886146E0CA
:104720002900206800F0C3F82068806950F4006018
:10473000216888612068806930F480602168886120
:1047400020688069296950EA0120216888612EE08B
:104750002900206800F032F92068C06950F0080094
:104760002168C8612068C06930F004002168C86110
:104770002068C069296908432168C86117E02900D9
:10478000206800F058F92068C06950F40060216882
:10479000C8612068C06930F480602168C861206801
:1047A000C069296950EA01202168C861FFE701203A
:1047B00084F83900002084F83800002070BD70476C
:1047C0007047704770477047002203681A00DFF88F
:1047D000CC32984212D0B0F1804F0FD0DFF8C03207
:1047E00098420BD0DFF8BC32984207D0DFF8B832DD
:1047F000984203D0DFF8B432984201D1012300E09F
:104800000023DBB2002B03D032F070024B681A4356
:10481000DFF8883298422AD0B0F1804F27D0DFF8F5
:104820008032984223D0DFF87C3298421FD0DFF8E4
:10483000783298421BD0DFF87432984217D0DFF8F4
:104840007032984213D0DFF86C3298420FD0DFF804
:10485000683298420BD0DFF86432984207D0DFF814
:104860006032984203D0DFF85C32984201D10123D4
:1048700000E00023DBB2002B03D032F44072CB689F
:104880001A4302608B68C3620B688362834B984251
:1048900002D0864B984201D1012300E00023DBB215
:1048A000002B01D00B69036301234361704730B4CF
:1048B000002300240022056A35F010050562056A10
:1048C0002C0045682A0085692B0033F4E04333F45B
:1048D00040730D6853EA052334F020048D6854EAD0
:1048E00005146E4DA84202D0704DA84201D1012599
:1048F00000E00025EDB2002D10D034F08004CD682A
:1049000054EA051434F0400432F4806232F4006258
:104910004D6952EA85028D6952EA850242608361DF
:104920004D688563046230BC7047000030B40023DA
:1049300001248C402300046A9C430462046A12FA36
:1049400001F52C43046230BC704730B400230024CE
:104950000022056A6D086D000562056A2C00456835
:104960002A0085692B0033F070039B089B000D68BB
:104970002B4334F002048D682C43484DA84202D0EA
:104980004A4DA84201D1012500E00025EDB2002DDD
:104990000DD034F00804CD682C4334F0040432F414
:1049A000807232F400724D692A438D692A43426055
:1049B00083614D684563046230BC704730B40023A6
:1049C00000240022056A35F480750562056A2C0012
:1049D00045682A00C5692B0033F070039B089B00D3
:1049E0000D682B4334F400748D6854EA05242B4D74
:1049F000A84202D02D4DA84201D1012500E000259A
:104A0000EDB2002D10D034F40064CD6854EA0524D2
:104A100034F4806432F4805232F400524D6952EA28
:104A200005128D6952EA05124260C3614D68C56383
:104A3000046230BC704730B4002300240022056AB1
:104A400035F480550562056A2C0045682A00C56961
:104A50002B0033F4E04333F440730D6853EA05232D
:104A600034F400548D6854EA05340C4DA84202D049
:104A70000E4DA84201D1012500E00025EDB2002D28
:104A800004D032F480424D6952EA85124260C3611B
:104A90004D680564046230BC7047000000000140AE
:104AA0000004004000080040000C004000040140E9
:104AB000004001400044014000480140001800400F
:104AC000001C004000200040002848BF40427047C2
:104AD00010F007024D4B1B6819004FF6FF031940F9
:104AE0004B4B53EA02231943484B19607047474820
:104AF0000068C0F302207047012110F01F029140AE
:104B0000444A40B2430942F82310704710B440B2FF
:104B1000002808D50A01404B40B210F00F04E318FA
:104B200003F8042C03E00A013C4B40B2C25410BC11
:104B3000704770B4030013F00704D4F10706052E84
:104B400001D3042001E0D4F10700261D072E01D275
:104B5000002500E0E51E012616FA00F0401E084080
:104B6000A8400121A940491E1140084370BC70476C
:104B700010B50400601EB0F1807F01D301200EE06B
:104B8000601E274908600F215FF0FF30FFF7BEFF6E
:104B9000002024490860072023490860002010BD38
:104BA00010B504002000FFF793FF10BDF8B5040016
:104BB0000D0016000027FFF79AFF070032002900BA
:104BC0003800FFF7B6FF0100200040B2FFF79EFF5C
:104BD000F1BD10B50400200040B2FFF78DFF10BDFD
:104BE00010B504002000FFF7C3FF10BD042806D154
:104BF0000D49096851F004010B4A116005E00A49AA
:104C0000096831F00401084A116070470CED00E0BA
:104C10000000FA0500E100E018ED00E000E400E02B
:104C200014E000E018E000E010E000E080B500F0E3
:104C300001F801BD7047000080B50320FFF7B0FF09
:104C4000002200215FF0FF30FFF7B0FF01BD10B57B
:104C500086B0040020684649884221D10020009097
:104C60004448006850F48070424908604148006838
:104C700010F48070009000980720019003200290AB
:104C80000020039001A93C48FEF7C0FA10200190D3
:104C9000032002900020039001A93848FEF7B6FADD
:104CA00006B010BD10B586B00400206835498842B2
:104CB0001BD1002000902F48006850F480502D49EF
:104CC00008602C48006810F4805000900098E020A4
:104CD0000190022002900020039003200490052000
:104CE000059001A92548FEF791FA06B010BD10B550
:104CF00086B0040020682449884216D10020009024
:104D00001F48006850F010001D4908601C480068EA
:104D100010F0100000900098002200213620FFF7CC
:104D200045FF3620FFF755FF20E0206817498842ED
:104D30001CD1002000900F48006850F002000D497F
:104D400008600C48006810F00200009000984FF4D2
:104D50000070019002200290002003900220049035
:104D60000320059001A90448FEF750FA06B010BDD3
:104D70000020014044380240000802400000024088
:104D80004038024000300140001000400004014063
:104D900070B582B0040000252078C00754D5DFF834
:104DA000D806006810F00C0004280BD0DFF8C80605
:104DB000006810F00C0008280ED1DFF8C00600686B
:104DC000400209D5DFF8B806006880033CD560686A
:104DD000002839D101209EE10020DFF8A8160870D4
:104DE000FEF785FB0500DFF898060068800306D50E
:104DF000FEF77DFB401B6528F5D303208BE160683F
:104E0000DFF880160870606800280ED0FEF76FFB90
:104E10000500DFF86C060068800315D4FEF767FB19
:104E2000401B6528F5D3032075E1FEF760FB050004
:104E3000DFF84C060068800306D5FEF758FB401BE0
:104E40006528F5D3032066E12078800766D5DFF872
:104E50002806006810F00C0F0BD0DFF81C06006865
:104E600010F00C0008281FD1DFF81006006840027F
:104E70001AD4DFF80C060068800704D5E068012822
:104E800001D0012047E1DFF8F80500685FF0F85134
:104E9000B1FA81F130F0F800226912FA01F1084309
:104EA000DFF8DC15086039E0E068002823D0012035
:104EB000DFF8D4150860FEF71AFB0500DFF8C0051F
:104EC0000068800706D4FEF712FB401B6528F5D367
:104ED000032020E1DFF8A80500685FF0F851B1FA7F
:104EE00081F130F0F800226912FA01F10843DFF88D
:104EF0009015086012E00020DFF88C150860FEF7BE
:104F0000F6FA0500DFF878050068800706D5FEF799
:104F1000EEFA401B6528F5D30320FCE0207800075B
:104F200028D56069002812D00120DFF860150860DC
:104F3000FEF7DDFA0500DFF858050068800719D490
:104F4000FEF7D5FA401B6528F5D30320E3E00020E7
:104F5000DFF838150860FEF7CAFA0500DFF83005FB
:104F60000068800706D5FEF7C2FA401B6528F5D316
:104F70000320D0E02078400765D500200090DFF8BE
:104F80001405006850F08050DFF808150860DFF85D
:104F90000405006810F0805000900098DFF8F804D5
:104FA000006850F48070DFF8F0140860FEF79FFA94
:104FB0000500DFF8E4040068C00506D4FEF797FAA0
:104FC000401B6528F5D30320A5E00020DFF8CC14B2
:104FD0000870FEF78CFA0500DFF8C004006880074F
:104FE00008D5FEF784FA401B41F289318842F3D399
:104FF000032090E0A068DFF8A4140870A0680028DF
:1050000010D0FEF774FA0500DFF8900400688007FE
:1050100019D4FEF76CFA401B41F289318842F3D370
:10502000032078E0FEF763FA0500DFF870040068FB
:10503000800708D5FEF75BFA401B41F289318842B0
:10504000F3D3032067E0A069002863D0DFF82804C9
:10505000006810F00C0008285AD0A069022844D13A
:105060000020DFF83C140860FEF741FA0500DFF885
:1050700010040068800106D5FEF739FA401B652848
:10508000F5D3032047E0DFF81C04B0FA80F24FF4B8
:105090004040B0FA80F0F021B1FA81F1E369266A6C
:1050A0003343666A16FA02F21A43A36A5B085B1E70
:1050B00013FA00F01043E26A12FA01F10843DFF834
:1050C000BC1308600120DFF8D8130860FEF70FFA60
:1050D0000500DFF8AC03006880011BD4FEF707FA77
:1050E000401B6528F5D3032015E00020DFF8B0133E
:1050F0000860FEF7FCF90500DFF884030068800112
:1051000008D5FEF7F4F9401B6528F5D3032002E02B
:10511000012000E0002076BD70B504000D000026DF
:10512000DFF88403006810F00F00A84280F08F8041
:10513000DFF874030570DFF87003006810F00F00EB
:10514000A84201D001202AE12078800709D5DFF8A4
:105150002803006830F0F000A1680843DFF8181356
:1051600008602078C00740F1FD806068012806D102
:10517000DFF80C030068800315D401200FE160689C
:10518000022802D06068032806D1DFF8F402006824
:10519000800108D4012002E1DFF8E4020068800702
:1051A00001D40120FBE0DFF8D00200688008800015
:1051B00061680843DFF8C0120860FEF798F906003E
:1051C0006068012810D1DFF8B002006810F00C0010
:1051D000042800F0C780FEF78AF9801B41F289316C
:1051E0008842F0D30320DAE06068022810D1DFF8AB
:1051F0008802006810F00C00082800F0B380FEF769
:1052000076F9801B41F289318842F0D30320C6E051
:10521000606803280BD1DFF860020068FEF767F9C9
:10522000801B41F289318842F5D30320B7E0DFF8D3
:105230004802006810F00C0F00F09480FEF757F958
:10524000801B41F289318842F1D30320A7E0207806
:10525000800709D5DFF82002006830F0F000A1686F
:105260000843DFF8141208602078C0076ED5606824
:10527000012806D1DFF808020068800315D4012058
:105280008DE06068022802D06068032806D1DFF84C
:10529000F0010068800108D4012080E0DFF8E0011F
:1052A0000068800701D4012079E0DFF8CC010068B4
:1052B0008008800061680843DFF8BC110860FEF7D1
:1052C00016F90600606801280FD1DFF8AC0100680C
:1052D00010F00C00042839D0FEF709F9801B41F2C8
:1052E00089318842F1D3032059E0606802280FD148
:1052F000DFF88401006810F00C00082826D0FEF7C3
:10530000F6F8801B41F289318842F1D3032046E050
:10531000606803280BD1DFF860010068FEF7E7F84A
:10532000801B41F289318842F5D3032037E0DFF852
:105330004801006810F00C0F08D0FEF7D8F8801B69
:1053400041F289318842F2D3032028E0DFF8580186
:105350000570DFF85401006810F00F00A84201D07A
:1053600001201CE02078400709D5DFF80C01006817
:1053700030F4E050E1680843DFF8FC100860207862
:10538000000708D53C48006830F46040216950EAC5
:10539000C100394908600020FEF791F8002070BD77
:1053A000F0B40021002200230020334C246814F0C4
:1053B0000C04002C04D0042C05D0082C06D040E0AE
:1053C0003A4C20003FE03A4C20003CE02B4C246853
:1053D00014F03F042100294C2468640210D5274CA6
:1053E0002468334DB5FBF1F547F6C07634402D4EB9
:1053F000B6FA86F62700F74007FB05F422000FE017
:105400001E4C2468294DB5FBF1F547F6C0763440B3
:10541000244EB6FA86F62700F74007FB05F4220073
:10542000164C246814F440344FF44045B5FA85F521
:105430002600EE40741C64002300B2FBF3F420004D
:1054400001E01A4C2000F0BC704710B5FFF7A8FF30
:10545000094909685FF07062B2FA82F2154B11F0E7
:10546000F0010C00D440E15C0200CA401248026026
:105470001148006810BD000008380240043802409E
:10548000003802400238024000004742800E474286
:1054900074380240403802400070004070380240CA
:1054A000600047420000FE03003C02400024F4007C
:1054B00000127A00246C00080C01002010B50400D2
:1054C000002C01D101201CE0E06ADFF86C14884256
:1054D00094F83D00002805D1002084F83C0020000D
:1054E000FFF7B5FB022084F83D00200000F070F9C2
:1054F00000202064012084F83D00002084F83C0056
:10550000002010BD81B001000020009091F83C0007
:10551000012801D102204EE0012081F83C0091F8E1
:105520003D00222803D1322081F83D0002E0122004
:1055300081F83D0008688068C00716D40868806854
:1055400050F001000A689060DFF8F0030068DFF8AF
:10555000F023B0FBF2F003225043009000980028A3
:1055600003D00098401E0090F8E7002081F83C002E
:10557000DFF8D003006810F01F0F0BD108688068B7
:1055800010F0405F16D10868806850F080400A68CB
:1055900090600FE00868DFF8B02390420AD10868F5
:1055A000806810F0405F05D10868806850F0804046
:1055B0000A689060002001B07047010008688068A8
:1055C000400840000A689060012081F83D000020FA
:1055D000704770B504000D00002620688068400503
:1055E0000BD520688068C00507D5042084F83D00ED
:1055F000002084F83C00012024E0FDF778FF06003D
:1056000020680068800711D415F1010FF8D0002D33
:1056100004D0FDF76CFF801B8542F1D2032084F893
:105620003D00002084F83C0003200BE094F83D008E
:10563000252803D1352084F83D0002E0152084F8A8
:105640003D00002070BD0068C06C704738B4020097
:105650000020009092F83C00012801D10220B5E022
:10566000012082F83C0008680A2818D31068C06836
:1056700007230C680A3C032514FB05F4A340984358
:105680001368D8601068C0688B680C680A3C0325F2
:1056900014FB05F4A34018431368D86013E01068A6
:1056A000006907230C6803256C43A34098431368E3
:1056B0001861106800698B680C6803256C43A3406F
:1056C0001843136818614868072818D21068406B9F
:1056D0001F234C68641E052514FB05F4A340984362
:1056E000136858631068406B0B884C68641E05256E
:1056F00014FB05F4A34018431368586333E048686B
:105700000D2818D21068006B1F234C68E41F052574
:1057100014FB05F4A3409843136818631068006BEA
:105720000B884C68E41F052514FB05F4A3401843BF
:105730001368186317E01068C06A1F234C680D3C9B
:10574000052514FB05F4A34098431368D86210683C
:10575000C06A0B884C680D3C052514FB05F4A3407A
:1057600018431368D8621068774B984208D10868CC
:10577000122805D17348006850F48000714B1860FE
:105780001068714B98421DD10868102802D0086833
:10579000112817D16B48006850F40000694B18605D
:1057A000086810280ED165480068654BB0FBF3F01F
:1057B0000A23584300900098002803D00098401E08
:1057C0000090F8E7002082F83C00002032BC7047CF
:1057D0005C49096831F440315A4A116059490968F5
:1057E00042681143574A11600168496831F4807179
:1057F0000268516001684968026951EA0221026841
:1058000051600168496831F0407102685160016877
:10581000496882681143026851600168896831F4FF
:1058200000610268916001688968C268114302687A
:105830009160C16A404A914218D00168896831F08C
:1058400070610268916001688968C26A11430268E8
:1058500091600168896831F0405102689160016887
:105860008968026B1143026891600BE001688968E6
:1058700031F07061026891600168896831F04051CF
:10588000026891600168896831F0020102689160E4
:1058900001688968826951EA420102689160416A3F
:1058A000002919D00168496851F40061026851600B
:1058B0000168496831F46041026851605FF4E02199
:1058C000B1FA81F102685268836A5B1E13FA01F132
:1058D00011430268516005E00168496831F40061D4
:1058E000026851600168C96A31F470010268D162CE
:1058F0000168C96A026A521E51EA02510268D16205
:105900000168896831F400710268916001688968F2
:10591000C26951EA4221026891600168896831F4E4
:1059200080610268916001688968426951EA822158
:1059300002689160704700000100000F0C01002018
:1059400040420F00042301400020014010B5040034
:10595000002C01D101203EE094F85100002805D12F
:10596000002084F850002000FFF79CF9022084F802
:1059700051002068006830F04000216808606068CD
:10598000A1680843E1680843216908436169084345
:10599000A16911F400710843E1690843216A0843D1
:1059A000A16A084321680860A069000C10F0040097
:1059B000616A084321684860E06A216808612068DC
:1059C000C06930F400602168C86100206065012072
:1059D00084F85100002010BD2DE9F04782B004008A
:1059E0000D0016001F00DDF828805FF000095FF051
:1059F000000A94F851008146B9F1010F03D0B9F1C2
:105A0000220F40F09F81002D04D0002E02D0BFB2A3
:105A1000002F01D1012096E194F85000012801D116
:105A2000022090E1012084F8500094F851000128F0
:105A300002D1322084F8510000206065A663A78758
:105A4000E7872563A786E7860020A0640020E0643E
:105A5000A06AB0F5005F0BD12068006830F40050F8
:105A6000216808602068006850F4005021680860D0
:105A700020680068400605D42068006850F04000A7
:105A800021680860E068B0F5006F40F088806068C9
:105A9000002806D06068B0F5827F0CD1E08E012826
:105AA00009D1206B00882168C860206B801C2063AE
:105AB000E08E401EE086E08E00281ED1A06AB0F580
:105AC000005F05D12068006850F4805021680860AC
:105AD000434600220121200000F037F9002801D0C0
